:100000000C942A000C943F000C943F000C943F0089
:100010000C943F000C943F000C943F000C943F0064
:100020000C943F000C943F000C943F000C943F0054
:100030000C943F000C943F000C943F000C943F0044
:100040000C943F000C943F000C943F000C943F0034
:100050000C943F0011241FBECFE5D8E0DEBFCDBF1A
:1000600010E0A0E6B0E0EEE2F2E002C005900D92F2
:10007000A83EB107D9F70E94BD000C9415010C945D
:1000800000001ABA1BBA8FE087BB8FEF88BB84BB16
:1000900015BA80EF81BB12BA0895959885BB979ADF
:1000A0000000000097988FE99FE00197F1F700C0EA
:1000B000000008958FEF91EEA4E081509040A040A1
:1000C000E1F700C0000088E30E944D0088E00E9434
:1000D0004D0081E00E944D00AFE3BCE91197F1F7BC
:1000E00000C0000086E00E944D008FE00E944D009D
:1000F00008950E9441000E945A0015BE19BE08953D
:10010000959A85BB979A0000000097988FE99FE029
:100110000197F1F700C000000895813019F0823096
:1001200051F405C0862F81580E944D000895862FF6
:1001300081540E944D000895EF92FF920F931F93F8
:10014000DF93CF9300D0CDB7DEB749835A830E94A7
:100150008D0049815A818A0102C00E948000F80105
:1001600081918F018823C9F70F900F90CF91DF9174
:100170001F910F91FF90EF9008951F93CF93DF93FE
:100180000E94790081E061E040E650E00E949C001E
:1001900080EC0E944D0010E0C1E0D0E08FE99FE0CC
:1001A0000197F1F700C00000FE01012E02C0EE0F22
:1001B000FF1F0A94E2F7E095E8BBAFE9BFE01197B3
:1001C000F1F700C0000086B38F608F3F41F18FEFE1
:1001D00099EFA0E081509040A040E1F700C00000FE
:1001E00086B38F608F3FD9F0EF70807FE82B86B3A6
:1001F0008F608F3FE1F78FEF99EFA0E08150904043
:10020000A040E1F700C00000E757E83728F4F0E02D
:10021000E159FF4F808101C088E50E9480001F5F87
:0E022000143008F4BBCF10E0B9CFF894FFCF34
:10022E0020202057454C434F4D452020202000468E
:10023E00585858455844435858585858585858586C
:10024E005858585858585858585858585858585820
:10025E005858585858585858585858585858585810
:10026E005858585858585858585858585858584216
:10027E005858584158393858585858585858585846
:10028E005858585858585858585858585858583701
:10029E00585858365835345858585858585858335E
:0802AE00585858325831300055
:00000001FF
