:100000000C942A000C9447000C9447000C94470071
:100010000C9447000C9447000C9447000C94470044
:100020000C9447000C9447000C9447000C94470034
:100030000C9447000C9447000C9447000C94470024
:100040000C9447000C9447000C9447000C94470014
:100050000C94470011241FBECFE5D8E0DEBFCDBF12
:1000600010E0A0E6B0E0E2E8F1E002C005900D92F9
:10007000AA39B107D9F710E0AAE9B0E001C01D9292
:10008000AA39B107E1F70E9449000C94BF000C9413
:1000900000000E9463000E945B000E945D000097C8
:1000A00029F080E690E00E949200F7CF89E790E087
:1000B0000E946700F2CFA098089523B330E021702A
:1000C0003070C90108958FEF87BB8ABB08951F93D5
:1000D000CF93DF9321E130E01BC01081109518BB56
:1000E0001D911BBBC7EED3E02197F1F700C00000C4
:1000F000119118BB10E0EA39F10779F741505040EF
:1001000021F0DB01E2E9F0E0E8CF2150304031F0AE
:1001100044E150E0BC01620F731FF3CFDF91CF9138
:100120001F9108951F93CF93DF9320E030E01DC00F
:100130001081109518BB1D911BBBC7EED3E0219712
:10014000F1F700C00000119118BB10E0EA39F10787
:1001500079F74150504021F0DB01E2E9F0E0E8CFCF
:100160002F5F3F4F2231310531F044E150E0BC01B7
:10017000620F731FF1CFDF91CF911F910895F89413
:02018000FFCFAF
:10018200000000000000000000183C7EFF3C3C3CE8
:100192003C00000000000000000000000000000021
:1001A20000003C3C3C3CFF7E3C180000000000008C
:0A01B2000000010204081020408044
:00000001FF
