:100000000C942A000C9434000C9434000C943400AA
:100010000C9434000C9434000C9434000C94340090
:100020000C9434000C9434000C9434000C94340080
:100030000C9434000C9434000C9434000C94340070
:100040000C9434000C9434000C9434000C94340060
:100050000C94340011241FBECFE5D8E0DEBFCDBF25
:100060000E9436000C9476000C9400000E946800F8
:100070000E9458000E945A000E945C00009739F0CC
:100080000E946200009719F00E947100F5CF0E9453
:100090005C00009719F00E946E00EECF0E94620093
:1000A000009719F00E946B00E7CF0E947400E4CF24
:1000B000A2980895A398089523B330E02470307077
:1000C000C901089523B330E028703070C901089544
:1000D0008FEF84BB089582E085BB089581E085BBE6
:1000E000089583E085BB089515BA0895F894FFCF6D
:00000001FF
