:100000000C942A000C943C000C943C000C943C0092
:100010000C943C000C943C000C943C000C943C0070
:100020000C943C000C943C000C943C000C943E005E
:100030000C943C000C943C000C943C000C943C0050
:100040000C943C000C943C000C943C000C943C0040
:100050000C943C0011241FBECFE5D8E0DEBFCDBF1D
:1000600010E0A0E6B0E001C01D92A136B107E1F7B3
:100070000E944F000C946C000C9400001F920F9291
:100080000FB60F9211248F93809160008F5F809341
:1000900060008F910F900FBE0F901F901895D09A0F
:1000A0000E94610091E0809160008C30E0F382B7A3
:1000B0008533C8F38BB389278BBB12BE10926000C7
:1000C000F2CF83B7846083BF12BE89B7816089BFD6
:0C00D0007894109260000895F894FFCF1F
:00000001FF
