:100000000C942A000C9447000C9447000C94470071
:100010000C9447000C9447000C9447000C94470044
:100020000C9447000C9447000C9447000C94470034
:100030000C9447000C9447000C9447000C94470024
:100040000C9447000C9447000C9447000C94470014
:100050000C94470011241FBECFE5D8E0DEBFCDBF12
:1000600010E0A0E6B0E0ECEBF1E002C005900D92EC
:10007000A637B107D9F710E0A6E7B0E001C01D929E
:10008000AC37B107E1F70E9449000C94DC000C94F6
:1000900000001F930E946B000E94730010E28FEF1C
:1000A00090E7A2E081509040A040E1F700C000003E
:1000B00084B3882369F40E9475008FEF91E1AAE769
:1000C00081509040A040E1F700C0000014BBE7CF92
:1000D0000E947700E4CFA598089523B330E0207202
:1000E0003070C9010895D09A0895D89A0895D89883
:1000F00008951F93182F873049F460917A0070910A
:100100007B0080E690E00E949D0008C08A3019F4D0
:100110008DE00E9479005D9BFECF1CB980E090E0ED
:100120001F91089583E389B988E18AB988E690E050
:1001300090937900809378000895EF92FF920F9347
:100140001F93CF93DF937C01EB018B8181FF11C063
:1001500000E010E008C0E885F985BE010995009728
:1001600011F00FEF1FEFF70181917F01882399F7BD
:1001700002C00FEF1FEFC801CDB7DEB7E6E00C9469
:10018000CD002A88398848885F846E847D848C8479
:100190009B84AA84B984C884DF80EE80FD800C81B2
:1001A0001B81AA81B981CE0FD11D0FB6F894DEBF95
:0C01B0000FBECDBFED010895F894FFCF05
:1001BC002A72696E672A0A00000000020000000023
:0601CC00790000000000B4
:00000001FF
