:100000000C942A000C9447000C9447000C94470071
:100010000C9447000C9447000C9447000C94470044
:100020000C9447000C9447000C9447000C94470034
:100030000C9447000C9447000C9447000C94470024
:100040000C9447000C9447000C9447000C94470014
:100050000C94470011241FBECFE5D8E0DEBFCDBF12
:1000600010E0A0E6B0E0ECE6FBE002C005900D92E7
:10007000AE3FB107D9F711E0AEEFB0E001C01D927D
:10008000A830B107E1F70E9449000C94B4050C9424
:100090000000EF92FF920F931F93CF93DF930E9484
:1000A000F0000E94F2000E9452020E948B0283E044
:1000B0000E94500181E060E00E94260104E810E007
:1000C000CCE6D0E089E9E82E80E0F82E8FEF99E6C3
:1000D000A8E181509040A040E1F700C000000E94DC
:1000E000F400009709F444C00E94FA00009701F15F
:1000F00081E060E00E94260180E690E00E94A0017D
:1001000081E061E00E9440020E9455020E946B0261
:1001100063E00E94DB010E9455020E946B0200D046
:1001200000D0ADB7BEB71296DC93CE9311973BC00B
:1001300081E060E00E9426018CE790E00E94A0012F
:1001400081E061E00E9440020E9455020E94660226
:1001500063E00E94DB010E9455020E94660200D00B
:1001600000D0EDB7FEB712830183948383831FC051
:1001700081E060E00E94260180E990E00E94A001F9
:1001800081E061E00E9440020E94550263E00E940B
:10019000DB010E94550200D000D0ADB7BEB7129669
:1001A000FC92EE92119714969C938E9313970E9453
:1001B000E1020F900F900F900F9088CF80E487B9E5
:1001C00087E886B908953699FECF87B1887F836026
:1001D00087B9369A3699FECF24B135B1C901089551
:1001E000A0980895A198089523B330E0217030704D
:1001F000C901089523B330E022703070C901089519
:1002000087B3807F87BB969A939800C000C0C49A3A
:1002100000C000C086B38295807F00C000C0C49833
:1002200092E09A95F1F700C0C49A00C000C096B35E
:1002300000C000C0C49892E09A95F1F700C087FD15
:10024000E6CF969887B38F6087BB0895282F2295B5
:100250002F708F70662311F4939801C0939A00C099
:1002600000C0C49A98B3907F922B98BB92E09A9565
:10027000F1F700C0C49892E09A95F1F700C0C49AD3
:1002800098B3907F982B98BB82E08A95F1F700C0D5
:10029000C49892E09A95F1F700C00E940001089579
:1002A0001F93CF93DF93182F8FEF90E7A2E0815039
:1002B0009040A040E1F700C0000088B3807F88BB79
:1002C000C4989698939887B38F6087BBBC9A8B9A93
:1002D0008E9A00C00000C49AC19A92E09A95F1F7F4
:1002E00000C0C498A2E0AA95F1F700C087E592E0AB
:1002F0000197F1F700C0000088E260E00E9426014B
:10030000812F886060E00E942601812F8C6060E070
:100310000E94260180E460E00E942601C7EAD0E046
:10032000899161E00E94260190E0C73ED907C1F79C
:1003300081E060E00E942601DF91CF911F91089536
:10034000CF93DF93EC0110C0853251F42196888160
:100350008053883028F085E261E00E942601888180
:1003600061E00E94260121968881882369F7DF9148
:10037000CF9108951F93CF93DF93EC01FC018491FB
:1003800014C0853261F42196FE011491812F8053AF
:10039000883028F085E261E00E942601812F61E02B
:1003A0000E9426012196FE018491882351F7DF9156
:1003B000CF911F910895EF92FF920F931F93DF93B8
:1003C000CF9300D000D00F92CDB7DEB78C01E62ED0
:1003D000FE01319685E0DF011D928A95E9F717FF4E
:1003E00008C08DE261E00E942601109501951F4F23
:1003F00004C080E261E00E942601FE0136962AE0F8
:1004000030E006C0C801B9010E94960282938B01B8
:1004100001151105B9F7BE2DBF3F59F4FE01319604
:1004200000E010E002C00F5F1F4F81918823D9F3D5
:1004300008C06E2D772767FD709505E010E0061B5C
:10044000170B7E010894E11CF11CE00EF11E09C09F
:10045000F70181917F01805D61E00E9426010F5FBD
:100460001F4F05301105A4F30F900F900F900F90C0
:100470000F90CF91DF911F910F91FF90EF90089512
:10048000843178F4623031F0633031F0613029F436
:10049000806403C08C5E01C08C5A806860E00E945A
:1004A000260108950E94DE0008950E94E3002EE7D1
:1004B00031E0281B390BC90163E070E00E9496020D
:1004C0006093FE007093FF00CB0108959C012F5EA6
:1004D0003E4FC90108959C01205F3F4F220F331FFB
:1004E000C90108951F93182F873049F460910601C0
:1004F0007091070187EE90E00E94BD0208C08A302B
:1005000019F48DE00E9472025D9BFECF1CB980E061
:1005100090E01F91089583E389B988E18AB98FEE4D
:1005200090E09093050180930401089597FB092EB4
:1005300007260AD077FD04D00CD006D000201AF48C
:10054000709561957F4F0895F6F7909581959F4F2F
:100550000895AA1BBB1B51E107C0AA1FBB1FA6170A
:10056000B70710F0A61BB70B881F991F5A95A9F75C
:1005700080959095BC01CD010895EF92FF920F9365
:100580001F93CF93DF937C01EB018B8181FF11C01F
:1005900000E010E008C0E885F985BE0109950097E4
:1005A00011F00FEF1FEFF70181917F01882399F779
:1005B00002C00FEF1FEFC801CDB7DEB7E6E00C9425
:1005C000A505A0E0B0E0E7EEF2E00C948D05FE0199
:1005D0003596619171918091040190910501AF016F
:1005E0000E94F6022096E2E00C94A905ACE0B0E08F
:1005F000ECEFF2E00C947D056C011B018A01FC011B
:1006000017821682838181FFD1C12E010894411C7B
:10061000511CF6019381F10193FD859193FF819126
:100620001F01882309F4BEC1853239F493FD8591F9
:1006300093FF81911F01853229F490E0B6010E9459
:10064000F304E7CFEE24FF2420E02032B0F48B3215
:1006500069F08C3228F4803251F0833271F40BC08F
:100660008D3239F0803349F421602CC0226024603F
:1006700029C0286027C0206125C027FD2CC0382F45
:1006800030533A3098F426FF08C08E2D880FE82E9C
:10069000EE0CEE0CE80EE30E15C08F2D880FF82E31
:1006A000FF0CFF0CF80EF30E20620CC08E3221F40A
:1006B00026FD78C1206406C08C3611F4206802C083
:1006C000883649F4F10193FD859193FF81911F01D3
:1006D000882309F0BACF982F9554933018F0905290
:1006E000933028F40C5F1F4FFFE3F9830DC083366E
:1006F00031F0833771F0833509F060C022C0F80112
:10070000808189830E5F1F4F420171E0A72EB12CBB
:1007100016C062E0662E712C600E711EF80180809A
:10072000918026FF03C06E2D70E002C06FEF7FEF57
:10073000C4012C870E94E8045C0183012C852F777B
:1007400017C052E0652E712C600E711EF80180807A
:10075000918026FF03C06E2D70E002C06FEF7FEF27
:10076000C4012C870E94DD045C012C852068830174
:1007700023FD20C008C080E290E0B6012C870E94D3
:10078000F304FA942C858F2D90E0A816B90698F3FF
:1007900011C0F40127FD859127FF81914F0190E061
:1007A000B6012C870E94F3042C85F110FA9408946A
:1007B000A108B108A114B10461F7F1C0843611F0A9
:1007C000893649F527FF08C0F8016081718182816F
:1007D00093810C5F1F4F09C0F801608171818827E8
:1007E00077FD8095982F0E5F1F4F4FE6B42EB222F3
:1007F00097FF09C090958095709561957F4F8F4FB9
:100800009F4FF0E8BF2AA2012AE030E00E941F05B6
:10081000782E741845C0853731F43FEEB32EB222DE
:100820002AE030E025C099EFB92EB2228F36C1F010
:10083000803720F4883509F0B5C00DC0803721F02D
:10084000883709F0AFC002C020E1B22AB4FE0BC065
:1008500084E0B82A08C0B4FE09C0E6E0BE2A06C09B
:1008600028E030E005C020E130E002C020E132E0C5
:10087000B7FE08C0F80160817181828193810C5FAD
:100880001F4F07C0F8016081718180E090E00E5F2A
:100890001F4FA2010E941F05782E7418FFE7BF2288
:1008A000B6FE0BC02EEFB2227E1438F4B4FE07C0A1
:1008B000B2FC05C08FEEB82202C0A72C01C0AE2C3E
:1008C0008B2D90E0B4FE0DC0FE01E70DF11D2081DF
:1008D000203319F4E9EEBE2209C0A394B2FE06C08B
:1008E00004C086789070009709F0A3948B2C99240B
:1008F000B3FC14C0B0FE0FC0AF1428F4E72CEF0C0B
:10090000EA18AF2C08C0E72C06C080E290E0B601E0
:100910000E94F304A394AF14C0F304C0AF1410F406
:10092000FA1801C0FF2484FE0FC080E390E0B601F6
:100930000E94F30482FE1FC081FE03C088E590E0A0
:1009400010C088E790E00DC0C401867890700097D1
:1009500091F081FC02C080E201C08BE2B7FC8DE225
:1009600090E0B6010E94F30406C080E390E0B60177
:100970000E94F304EA947E14C0F37A94F201E70D26
:10098000F11D808190E0B6010E94F3047720A9F761
:1009900006C080E290E0B6010E94F304FA94FF20C2
:1009A000C1F737CEF6012681378102C02FEF3FEF26
:1009B000C9012C96E2E10C949905FC010590615067
:1009C00070400110D8F7809590958E0F9F1F089565
:1009D000FC016150704001900110D8F7809590950E
:1009E0008E0F9F1F08950F931F93CF93DF938C015A
:1009F000EB018B8181FF1BC082FF0DC02E813F81E7
:100A00008C819D812817390764F4E881F98101936D
:100A1000F983E88306C0E885F985802F099500975A
:100A200031F48E819F8101969F838E8302C00FEFE8
:100A30001FEFC801DF91CF911F910F910895FA0127
:100A4000AA27283051F1203181F1E8946F936E7F0D
:100A50006E5F7F4F8F4F9F4FAF4FB1E03ED0B4E0FE
:100A60003CD0670F781F891F9A1FA11D680F791F3F
:100A70008A1F911DA11D6A0F711D811D911DA11D50
:100A800020D009F468943F912AE0269F1124301960
:100A9000305D3193DEF6CF010895462F4770405DFB
:100AA0004193B3E00FD0C9F7F6CF462F4F70405DAA
:100AB0004A3318F0495D31FD4052419302D0A9F705
:100AC000EACFB4E0A6959795879577956795BA95FF
:100AD000C9F700976105710508959B01AC010A2EC5
:100AE00006945795479537952795BA95C9F7620F9C
:100AF000731F841F951FA01D08952F923F924F9240
:100B00005F926F927F928F929F92AF92BF92CF929D
:100B1000DF92EF92FF920F931F93CF93DF93CDB7A6
:100B2000DEB7CA1BDB0B0FB6F894DEBF0FBECDBF1E
:100B300009942A88398848885F846E847D848C84EF
:100B40009B84AA84B984C884DF80EE80FD800C81F8
:100B50001B81AA81B981CE0FD11D0FB6F894DEBFDB
:0C0B60000FBECDBFED010895F894FFCF4B
:100B6C0046616872656E686569743A0046616872C0
:100B7C00656E686569743A2025640A004B656C766D
:100B8C00696E3A004B656C76696E3A2025640A00F2
:100B9C0043656C736975733A0043656C736975735F
:100BAC00203A2025640A000000040E040000000016
:100BBC00040E1F0E040000040404041F0E04000A9B
:100BCC0015110A040000000A1F1F0E040000000C7F
:100BDC0012120C00000000040E1F04040404000197
:100BEC00021408000000002A72696E672A0A0000CD
:0E0BFC00000002000000007202000000000075
:00000001FF
